:100000000C9463000C948B000C948B000C948B006C
:100010000C948B000C948B000C948B000C948B0034
:100020000C948B000C948B000C948B000C948B0024
:100030000C948B000C948B000C948B000C948B0014
:100040000C9409090C948B000C9433070C94B6079C
:100050000C948B000C948B000C948B000C948B00F4
:100060000C9444030C948B00000000002400270033
:100070002A0000000000250028002B0000000000DE
:1000800023002600290004040404040404040202DA
:100090000202020203030303030301020408102007
:1000A0004080010204081020010204081020000012
:1000B0000007000201000003040600000000000029
:1000C00000005905690711241FBECFEFD8E0DEBF3D
:1000D000CDBF11E0A0E0B1E0E8EDF5E102C0059090
:1000E0000D92A438B107D9F713E0A4E8B1E001C03C
:1000F0001D92A031B107E1F710E0C6ECD0E004C0DA
:100100002297FE010E94E60AC23CD107C9F70E946D
:10011000FA080C94EA0A0C9400000F931F9301E074
:100120001FC0009384018EE592E00E94FC04182F0A
:10013000792F8AE692E0612F4AE050E00E94B508EC
:100140008AE692E060E071E00E94E4088091990103
:10015000E82FF0E0EB57FE4F10838F5F80939901FB
:100160008EE592E00E94F30418161906D4F21F914E
:100170000F91089580918401882309F461C0109241
:1001800084011092990190918701609188011092E9
:100190009A0197FF03C081E080939A01862F881F00
:1001A0008827881F41E0481B40939B019F779093CD
:1001B0009C016F7760939D016F3028F48EE991E088
:1001C0000E944B0105C08EE991E070E00E94B601EB
:1001D00060919C016F3028F48EE991E00E946A01E1
:1001E00007C08EE991E070E040919A010E94F00111
:1001F0008AE692E062E071E00E94E4088AE692E01A
:1002000063E271E00E94E4088AE692E060919C015A
:100210004AE050E00E94C6088AE692E062E371E09C
:100220000E94E4088AE692E060919D014AE050E075
:100230000E94C6088AE692E061E471E00E94E40848
:1002400061E070E080E090E00E948C0908950F93D7
:100250001F938EE991E00E94FD010AE612E0C801B9
:1002600040E056E960E070E026E00E942306C80105
:1002700061E671E00E94E7080EE512E0C80164E063
:1002800070E00E94F005C8016DE870E00E9454051E
:100290001F910F910895EF92FF920F931F937C018E
:1002A00084EA91E06AE040E050E008EE13E020E0EC
:1002B00030E00E94E8028AE060E00E94330A8BE0AE
:1002C00060E00E94330AF70115821F910F91FF90A1
:1002D000EF900895EF92FF920F931F937C0184EAB1
:1002E00091E069E040E050E008EE13E020E030E00B
:1002F0000E94E80288E060E00E94330A89E060E042
:100300000E94330AF70114821F910F91FF90EF9022
:1003100008950F931F93CF93DF93EC01498184EAF3
:1003200091E06AE050E008EE13E020E030E00E9447
:10033000E80286E061E00E94330A8B81882339F469
:100340008AE061E00E94330A8BE060E006C08AE048
:1003500060E00E94330A8BE061E00E94330A81E092
:100360008D83DF91CF911F910F910895FC01CB01F7
:100370006536710514F084E690E081834383CF01F4
:100380000E94890108950F931F93CF93DF93EC018F
:10039000488184EA91E069E050E008EE13E020E053
:1003A00030E00E94E80286E061E00E94330A8A8120
:1003B000882339F488E061E00E94330A89E060E034
:1003C00006C088E060E00E94330A89E061E00E9494
:1003D000330A81E08C83DF91CF911F910F910895B3
:1003E000FC01CB016536710514F084E690E0808352
:1003F0004283CF010E94C3010895FC011082118243
:10040000128213821482158288E061E00E94F4094E
:1004100089E061E00E94F4098AE061E00E94F40949
:100420008BE061E00E94F40986E060E00E94330AFC
:1004300088E060E00E94330A89E060E00E94330AAD
:100440008AE060E00E94330A8BE060E00E94330A99
:100450000895CF93DF93EC019A01AB0160E472E45D
:100460008FE090E00E94C90AE3E0220F331F441F8F
:10047000551FEA95D1F7203080E0380781E0480722
:1004800080E0580714F481E010C073E0559547955B
:10049000379527957A95D1F7203080E0380781E0AD
:1004A000480780E058071CF482E08A8339C063E083
:1004B00055954795379527956A95D1F7203080E077
:1004C000380781E0480780E0580714F483E0EDCF57
:1004D00092E055954795379527959A95D1F7203015
:1004E00080E0380781E0480780E0580714F484E092
:1004F000DCCF82E055954795379527958A95D1F7BA
:10050000203080E0380781E0480780E0580714F485
:1005100085E0CBCF85E08A832FEF3FEF40E050E0CE
:100520008FB7F8943983288330938700209386000F
:100530008FBF80918100887F8093810080918100AE
:100540009A81892B80938100DF91CF9108951F9329
:10055000DC01162FFA01453651051CF0E4E6F0E007
:1005600004C057FF02C0E0E0F0E08C9111969C912E
:100570009C01B3E0220F331FBA95E1F7880F991F52
:10058000280F391F40E050E0BF01882777FD809594
:10059000982F0E94880AFAE0969587957795679537
:1005A000FA95D1F72FB7F894113011F0193029F4DA
:1005B000709389006093880008C0123011F01A30DF
:1005C00021F470938B0060938A002FBF1F910895D0
:1005D000CF92DF92FF920F931F93CF93DF93EC01A3
:1005E000F62E6A01862F89508230E8F41016110623
:1005F00012061306C4F4CE01B901A8010E94290213
:1006000089E0F81629F4219A80918000806804C05E
:10061000229A80918000806280938000CE016F2DAD
:10062000A6010E94A702DF91CF911F910F91FF9029
:10063000DF90CF900895880F8093BA000895482FD7
:10064000613210F081E008958091A701843011F0AB
:1006500082E008956093F201A1EDB1E0842F9C0146
:10066000F90102C081918D938E2F841B8617D0F3E0
:1006700080E008959093AE018093AD01089590932A
:10068000AC018093AB0108951F920F920FB60F92A9
:1006900011242F933F934F935F936F937F938F9387
:1006A0009F93AF93BF93EF93FF938091B90090E036
:1006B000887F90708036910509F4F2C081369105EB
:1006C000CCF58832910509F47BC089329105B4F4E8
:1006D0008031910509F46FC0813191053CF4009798
:1006E00009F447C1089709F04FC165C088319105E9
:1006F00009F466C0809709F047C182C08034910533
:1007000009F4A4C08134910544F48033910509F4BF
:1007100082C0C89709F038C189C08035910509F4B5
:1007200089C08835910509F496C08834910509F08F
:100730002BC1AEC08839910509F413C189399105DF
:10074000ECF48837910509F4ABC0893791054CF476
:100750008836910509F4A4C08037910509F014C1C9
:100760009FC08838910509F4FCC08039910509F4CF
:100770009DC08038910509F007C198C0803B910564
:1007800009F4C6C0813B91054CF4803A910509F407
:100790009FC0883A910509F0F7C0BAC0803C910526
:1007A00009F4E3C0883C910509F4DFC0883B91055A
:1007B00009F0EAC0C2C08091A8018093BB00CFC0FD
:1007C0009091CF018091D001981768F49091CF015A
:1007D000E92FF0E0E155FE4F80818093BB009F5FE1
:1007E0009093CF01BCC08091A901882309F44BC02C
:1007F00085ED8093BC008091BC0084FDFCCFC2C01D
:1008000080E28093140285ED8093BC008091BC004F
:1008100084FDFCCFB7C080E38093140285ED809304
:10082000BC008091BC0084FDFCCFACC088E3809309
:1008300014029BC08091CF019091BB00E82FF0E0A3
:10084000E155FE4F90838F5F8093CF019091CF0150
:100850008091D00182C08091CF019091BB00E82FA0
:10086000F0E0E155FE4F90838F5F8093CF01809140
:10087000A901882341F085ED8093BC008091BC00E4
:1008800084FDFCCF7FC081E08093AA0184EA6EC022
:1008900085ED8093BC008091BC0084FDFCCF72C0CC
:1008A00083E08093A7011092130259C08091130234
:1008B000803208F056C0809113029091BB00E82F5F
:1008C000F0E0ED50FE4F90838F5F8093130247C09E
:1008D00080911302803230F4E0911302F0E0ED5089
:1008E000FE4F108285ED8093BC008091BC0084FD9A
:1008F000FCCF1092A70160911302E091AD01F0913D
:10090000AE0183EF91E070E00995109213022DC0C3
:1009100084E08093A7011092F1011092F201E0911E
:10092000AB01F091AC0109958091F201882329F483
:1009300081E08093F2011092D1019091F101E92FB1
:10094000F0E0EF52FE4F80818093BB009F5F909359
:10095000F1019091F1018091F201981710F485EC6A
:1009600001C085E88093BC000FC085EC8093BC007B
:1009700009C01092140285ED8093BC008091BC00E8
:1009800084FDFCCF1092A701FF91EF91BF91AF9131
:100990009F918F917F916F915F914F913F912F9197
:1009A0000F900FBE0F901F9018951092A70181E035
:1009B0008093A9011092AA0182E161E00E94330AAA
:1009C00083E161E00E94330AE9EBF0E080818E7FF1
:1009D000808380818D7F808388E48093B80085E464
:1009E0008093BC0008952091360230E0809135025A
:1009F000281B3109C90108954091350280913602C2
:100A0000481718F02FEF3FEF0AC0E42FF0E0EB5E3D
:100A1000FD4F8081282F30E04F5F40933502C901A0
:100A20000895E091350280913602E81718F0EFEF53
:100A3000FFEF06C0F0E0EB5EFD4F8081E82FF0E0B5
:100A4000CF0108950895AC0120915C0230915D02C0
:100A500021153105E1F09091350280913602981709
:100A6000B0F090E008C0FA01EA0FFB1F8081AB5E96
:100A7000BD4F8C939F5FA92FB0E0A617B7079CF3DB
:100A80001092350260933602CB01F9010995089561
:100A9000E0915A02F0915B02309729F010925702D0
:100AA000109258020995089570935D0260935C025C
:100AB0000895109261021092600288EE93E0A0E027
:100AC000B0E08093620290936302A0936402B093BB
:100AD000650288E691E090935F0280935E0208953C
:100AE000CF92DF92EF92FF920F931F93CF93DF93FA
:100AF0007C016B018A01809159028823A1F0C0E03A
:100B0000D0E00DC0D701ED91FC91D601AC0FBD1F17
:100B10000190F081E02DC7016C9109952196C017D5
:100B2000D10780F304C0CB01642F0E941F03C801CA
:100B3000DF91CF911F910F91FF90EF90DF90CF90B9
:100B40000895DF93CF930F92CDB7DEB7FC01698391
:100B5000809159028823C9F080915802803238F080
:100B600081E090E09383828320E030E015C08091A3
:100B70005702E82FF0E0E95CFD4F998190838F5F89
:100B8000809357028093580205C0CE01019661E020
:100B90000E941F0321E030E0C9010F90CF91DF9147
:100BA0000895109235021092360210925702109258
:100BB00058020E94D50408950F931F938C01862F2D
:100BC0000E941B0388E495E00E943F0383E295E0C6
:100BD0000E943A03C8010E94D1051F910F91089508
:100BE0000E94DC050895DC015C968C915C97FD0108
:100BF000E80FF11DE35AFF4F20815C968C915C97C2
:100C000090E001968F7390705C968C935C975696EB
:100C1000ED91FC91579720835096ED91FC9151975F
:100C20008081806480835B969C915B975C968C91BD
:100C30005C97981739F45296ED91FC915397808107
:100C40008F7D80830895DF92EF92FF920F931F9321
:100C5000CF93DF93EC017A018B01D22EE889F989D9
:100C600082E08083403081EE580780E0680780E0B2
:100C70007807A1F060E079E08DE390E0A8019701AA
:100C80000E94A70A21503040404050405695479559
:100C90003795279580E12030380798F0E889F98961
:100CA000108260E874E88EE190E0A80197010E944C
:100CB000A70A2150304040405040569547953795FF
:100CC0002795EC85FD853083EE85FF852083188E82
:100CD000EC89FD89D082EA89FB89808180618083EB
:100CE000EA89FB89808188608083EA89FB89808129
:100CF00080688083EA89FB8980818F7D8083DF9192
:100D0000CF911F910F91FF90EF90DF900895FC011C
:100D1000218D828D30E0205C3F4F281B31092F73DD
:100D20003070C9010895FC01918D828D981719F4D6
:100D30002FEF3FEF06C0828DE80FF11D858D282F24
:100D400030E0C9010895DC0159969C9159975A9653
:100D50008C915A97981719F42FEF3FEF10C05A96BD
:100D60008C915A97FD01E80FF11D958D5A968C9143
:100D70005A978F5F8F735A968C93292F30E0C90151
:100D80000895CF93DF93EC01888D882361F419C017
:100D90008C9185FF0AC0E889F989808185FF05C0AB
:100DA000CE010E94F305AA89BB898C9185FD05C0FF
:100DB000E889F989808186FD04C00FB607FEE8CF77
:100DC000F4CFDF91CF9108950F931F93CF93DF93CB
:100DD000EC01062F9B8D8C8D981791F5E889F98988
:100DE000808185FF2DC0EE89FF896083E889F989BC
:100DF0008081806480831DC00FB607FC08C0E8892D
:100E0000F989808185FF03C0CE010E94F3058C8D96
:100E1000181791F38B8DFE01E80FF11DE35AFF4F78
:100E200000831B8FEA89FB8980818062808381E057
:100E3000888F81E090E0DF91CF911F910F9108950D
:100E40001B8D1F5F1F73E3CF8CEA97E0892B51F056
:100E500080E090E0892B31F00E94AC07882311F0EC
:100E60000E94000008951F920F920FB60F92112456
:100E70002F938F939F93EF93FF93E0917A02F091DA
:100E80007B02808182FD16C0E0918002F091810298
:100E90002081909183029F5F9F73809184029817B5
:100EA00071F0E0918302F0E0E659FD4F258F9093B9
:100EB000830205C0E0918002F0918102E081FF9100
:100EC000EF919F918F912F910F900FBE0F901F90D8
:100ED000189510926D0210926C0288EE93E0A0E0DB
:100EE000B0E080936E0290936F02A0937002B09373
:100EF000710288E791E090936B0280936A0285EC1F
:100F000090E0909377028093760284EC90E0909347
:100F100079028093780280EC90E090937B0280933A
:100F20007A0281EC90E090937D0280937C0282ECC7
:100F300090E090937F0280937E0286EC90E0909305
:100F40008102809380021092830210928402109298
:100F500085021092860208958AE692E00E94870632
:100F600020E0892B09F021E0822F08951F920F9233
:100F70000FB60F9211242F933F934F935F936F936C
:100F80007F938F939F93AF93BF93EF93FF938AE6E3
:100F900092E00E94F305FF91EF91BF91AF919F9175
:100FA0008F917F916F915F914F913F912F910F9012
:100FB0000FBE0F901F901895CF92DF92EF92FF9285
:100FC0000F931F93CF93DF937C016B018A01C0E0E5
:100FD000D0E00FC0D6016D916D01D701ED91FC916C
:100FE0000190F081E02DC7010995C80FD91F01506C
:100FF00010400115110571F7CE01DF91CF911F91BE
:101000000F91FF90EF90DF90CF900895EF92FF92B5
:101010000F931F938C01DC01ED91FC910190F08105
:10102000E02D6DE009957C01D801ED91FC910190D6
:10103000F081E02DC8016AE009959C012E0D3F1D4D
:10104000C9011F910F91FF90EF900895CF93DF9307
:10105000EC016115710519F420E030E00FC0DB01EF
:101060000D900020E9F71197A61BB70BE881F981D5
:101070000280F381E02DAD0109959C01C901DF914A
:10108000CF9108954F925F927F928F929F92AF92ED
:10109000BF92CF92DF92EF92FF920F931F93DF9355
:1010A000CF93CDB7DEB7A1970FB6F894DEBF0FBED2
:1010B000CDBF2C01742ECB01223008F42AE019A2F6
:1010C00031E2C32ED12CCC0EDD1E822E9924AA240F
:1010D000BB24672D752FA50194010E94A70A7901F1
:1010E0008A01C801B701A50194010E94880A472D11
:1010F000461B0894C108D1084A3014F4405D01C071
:10110000495CF6014083E114F1040105110521F069
:101110007E2C5F2DC801DDCFC201B6010E942608DA
:10112000A1960FB6F894DEBF0FBECDBFCF91DF9171
:101130001F910F91FF90EF90DF90CF90BF90AF90F5
:101140009F908F907F905F904F900895DC012115C4
:10115000310541F4ED91FC910190F081E02D642F77
:10116000099508950E9442080895EF92FF920F9307
:101170001F939A017B0100E010E0B801A7010E94D3
:10118000A6081F910F91FF90EF900895CF92DF92E4
:10119000EF92FF920F931F936C01E62E9A01FF24AA
:1011A00000E010E0B801A7010E94A6088C01C6016A
:1011B0000E940608080F191FC8011F910F91FF9088
:1011C000EF90DF90CF9008950E9426080895EF9247
:1011D000FF920F931F937C010E9426088C01C70188
:1011E0000E940608080F191FC8011F910F91FF9058
:1011F000EF900895CF93DF930E9451090E94270139
:10120000C4E2D7E00E94BA002097E1F30E942407CD
:10121000F9CF1F920F920FB60F9211242F933F9385
:101220008F939F93AF93BF9380910B0390910C0387
:10123000A0910D03B0910E0330910F030196A11DF3
:10124000B11D232F2D5F2D3720F02D570196A11DA5
:10125000B11D20930F0380930B0390930C03A09375
:101260000D03B0930E038091070390910803A091A2
:101270000903B0910A030196A11DB11D80930703D4
:1012800090930803A0930903B0930A03BF91AF9111
:101290009F918F913F912F910F900FBE0F901F90B4
:1012A0001895789484B5826084BD84B5816084BDCE
:1012B00085B5826085BD85B5816085BDEEE6F0E0CF
:1012C000808181608083E1E8F0E01082808182602B
:1012D0008083808181608083E0E8F0E080818160AC
:1012E0008083E1EBF0E0808184608083E0EBF0E0DC
:1012F000808181608083EAE7F0E080818460808380
:101300008081826080838081816080838081806829
:1013100080831092C1000895EF92FF920F931F9364
:10132000CF93DF937B018C013FB7F8948091070343
:1013300090910803A0910903B0910A0326B5A89BD8
:1013400005C02F3F19F00196A11DB11D3FBFBA2F57
:10135000A92F982F8827820F911DA11DB11D52E042
:10136000880F991FAA1FBB1F5A95D1F7EC0130C0F7
:101370000E94870A3FB7F894809107039091080371
:10138000A0910903B0910A0326B5A89B05C02F3F81
:1013900019F00196A11DB11D3FBFBA2FA92F982F9B
:1013A0008827820F911DA11DB11D32E0880F991F62
:1013B000AA1FBB1F3A95D1F78C1B9D0B885E9340EB
:1013C000B8F20894E108F10801091109C851DC4F8D
:1013D000E114F1040105110559F6DF91CF911F9138
:1013E0000F91FF90EF900895CF93DF93482F50E037
:1013F000CA0186569F4FFC0134914A575F4FFA014C
:101400008491882369F190E0880F991FFC01E859C5
:10141000FF4FA591B491FC01EE58FF4FC591D491B7
:10142000662351F42FB7F8948C91932F90958923CC
:101430008C93888189230BC0623061F42FB7F894B4
:101440008C91932F909589238C938881832B88830B
:101450002FBF06C09FB7F8948C91832B8C939FBFAE
:10146000DF91CF910895482F50E0CA0182559F4FD8
:10147000FC012491CA0186569F4FFC0194914A5762
:101480005F4FFA013491332309F440C0222351F114
:10149000233071F0243028F42130A1F0223011F5EE
:1014A00014C02630B1F02730C1F02430D9F404C084
:1014B000809180008F7703C0809180008F7D809322
:1014C000800010C084B58F7702C084B58F7D84BD45
:1014D00009C08091B0008F7703C08091B0008F7DEC
:1014E0008093B000E32FF0E0EE0FFF1FEE58FF4FA8
:1014F000A591B4912FB7F894662321F48C9190951F
:10150000892302C08C91892B8C932FBF0895089555
:10151000629FD001739FF001829FE00DF11D649FD7
:10152000E00DF11D929FF00D839FF00D749FF00D63
:10153000659FF00D9927729FB00DE11DF91F639F04
:10154000B00DE11DF91FBD01CF0111240895A1E2E5
:101550001A2EAA1BBB1BFD010DC0AA1FBB1FEE1F2D
:10156000FF1FA217B307E407F50720F0A21BB30B78
:10157000E40BF50B661F771F881F991F1A9469F7F4
:1015800060957095809590959B01AC01BD01CF0150
:10159000089597FB092E05260ED057FD04D0D7DFFE
:1015A0000AD0001C38F450954095309521953F4F56
:1015B0004F4F5F4F0895F6F7909580957095619520
:1015C0007F4F8F4F9F4F0895EE0FFF1F0590F491AF
:0815D000E02D0994F894FFCF0F
:1015D80009000A2D2D2D2D2D2D2D2D2D2D2D2D2DA7
:1015E8002D2D2D2D2D2D2D2D2D2D2D2D2D2D2D2D23
:1015F8002D2D0073706565645F6C65667420203DF1
:10160800200073706565645F7269676874203D20A7
:10161800002D2D2D2D2D2D2D2D2D2D2D2D2D2D2D1F
:101628002D2D2D2D2D2D2D2D2D2D2D2D2D2D2D2DE2
:10163800006F6B0000000000A1057005F304FC04B6
:101648001105220500000000E406DC078706A30652
:041658009306C1062E
:00000001FF
